:04000000F5EF37F0F1
:106FEA00000EF86E000143EF3EF0000E0BEC38F095
:106FFA00010E0BEC38F0120005D0ABA203D0AB9215
:10700A00AB98AB889EAAF9D7AE501200036E839450
:10701A00035043EC38F083861A0E026EF80EE82EFF
:10702A00FED7022EFCD700D083961200015003022D
:10703A00F3CF05F0F4CF06F001500402F350062610
:10704A0002500302F350062605C001F006C002F002
:10705A001200000E056E000E046E05D000D000D09E
:10706A0000F0044A052A0150045C0550800A036EA8
:10707A000250800A0358D8B01200F0D7016E01A05E
:10708A0002D0838801D0839801A202D0838A01D0DA
:10709A00839A01A402D0838C01D0839C01A602D0DA
:1070AA00838E1200839E1200010E046E010ECEEC36
:1070BA0038F06E0E056E7F0E066E8AEC39F0010E00
:1070CA00046E020ECEEC38F0190E056E7F0E066EB7
:1070DA008AEC39F01200046E04500F0B026E045051
:1070EA00F00B036E838403380F0B43EC38F083866E
:1070FA00420EE82EFED700D08396025043EC38F0B9
:10710A008386420EE82EFED700D0839612000350E3
:10711A000410D8B418D0010E056E04D0D8900336E6
:10712A000436052A04AEFAD70350015C045002580B
:10713A00D8A004D00350015E0450025AD8900432F9
:10714A000332052EF1D701C001F002C002F012008D
:10715A0011C017F012C018F014AE0CD011C0D9FF2C
:10716A0012C0DAFF2D0EDF6E114A122A136C141E9A
:10717A00D8B0142A11C008F012C009F013C00AF0DE
:10718A0014C00BF015C00CF016C00DF089EC3AF0E3
:10719A001200056E0504D8A410D004507F0F086EA3
:1071AA0008380F0B066E08500F0B076E06500BECD3
:1071BA0038F007500BEC38F01200020E0518D8A46C
:1071CA0012000450BF0F086E08380F0B066E0850E5
:1071DA000F0B076E06500BEC38F007500BEC38F02B
:1071EA001200000E066E000E056E03500410D8B48D
:1071FA001CD0010E076E04D0D89003360436072A35
:10720A0004AEFAD7D890053606360350015C04500E
:10721A000258D8A005D00350015E0450025A0580D6
:10722A00D89004320332072EEDD705C001F006C00C
:10723A0002F0120007C001F008C002F0010E046E4D
:10724A00F40E036E1BEC38F001C00AF002C00BF01A
:10725A00000E0D6E000E0C6E14D08080070E096EA3
:10726A007D0EE82EFED7092EFCD700F08090070E7F
:10727A00096E7D0EE82EFED7092EFCD700F00C4AC7
:10728A000D2A0A500C5C0D50800A096E0B50800AB8
:10729A000958D8B01200E1D7000E43EC38F0820E3C
:1072AA00046EDE0EE82EFED7042EFCD7030E0BEC7E
:1072BA0038F0210E046E760EE82EFED7042EFCD787
:1072CA0000D0030E0BEC38F0480E046E6C0EE82E5C
:1072DA00FED7042EFCD700D0030E0BEC38F0020EBA
:1072EA000BEC38F0020E0BEC38F0080E0BEC38F011
:1072FA00000E0BEC38F00C0E0BEC38F0000E0BEC19
:10730A0038F0060E0BEC38F01200000E0A6E000E72
:10731A00096E1AD009500524076E0A500620086E15
:10732A0007C0F6FF08C0F7FFF86A070EF76403D034
:10733A000800F55005D0F6CFD9FFF7CFDAFFDF50B6
:10734A0070EC38F0094A0A2A09500524076E0A50D7
:10735A000620086E07C0F6FF08C0F7FFF86A070E96
:10736A00F76403D00800F55005D0F6CFD9FFF7CF60
:10737A00DAFFDF500009D8B41200CCD7000E126E23
:10738A008E0E116E0CAE11D00C1E0B1E0A1E096C4D
:10739A00000E0A220B220C22010E126E06D0D89081
:1073AA000C320B320A320932112A000E09140D6E00
:1073BA00000E0A140E6E000E0B140F6EFF0E0C1444
:1073CA00106E0D500E100F101010D8A4E8D709C077
:1073DA0001F00AC002F00BC003F011C004F012C0A1
:1073EA0005F0DBEC3AF001C009F002C00AF003C074
:1073FA000BF01200000E066E04AE06D0036C041EDB
:10740A00D8B0042A010E066E02AE06D0016C021E26
:10741A00D8B0022A010E061A000E086E000E076E78
:10742A0003500410D8B41CD0010E056E04D0D890B5
:10743A0003360436052A04AEFAD7D890073608363A
:10744A000350015C04500258D8A005D00350015ED5
:10745A000450025A0780D89004320332052EEDD721
:10746A000650D8B404D0076C081ED8B0082A07C042
:10747A0001F008C002F01200FAEC37F0010E046EB7
:10748A00010ECEEC38F0C70E056E7F0E066E8AEC42
:10749A0039F082B0FED7FAEC37F0010E046E010E15
:1074AA00CEEC38F03B0E056E7F0E066E8AEC39F094
:1074BA00010E046E020ECEEC38F05D0E056E7F0EE4
:1074CA00066E8AEC39F082A0FED7FAEC37F0010E8C
:1074DA00046E010ECEEC38F0F70E056E7E0E066EC7
:1074EA008AEC39F0010E046E020ECEEC38F04C0E26
:1074FA00056E7F0E066E8AEC39F0000E086E030EDA
:10750A00076E1FEC39F012000AC00EF00BC00FF024
:10751A000EC001F00FC002F00CC003F00DC004F061
:10752A00F6EC38F001C00EF002C00FF0084A092A42
:10753A000E500F10D8A4ECD708C0D9FF09C0DAFF43
:10754A00000EDF6E0806D8A009060AC001F00BC0BB
:10755A0002F00CC003F00DC004F08CEC38F00150BE
:10756A00106E0AC001F00BC002F00CC003F00DC08F
:10757A0004F0F6EC38F001C00AF002C00BF0090E74
:10758A00106402D0070E1026300E102608C0D9FF4C
:10759A0009C0DAFF10C0DFFF0806D8A009060A50A2
:1075AA000B10D8A4D2D7084A092A12000450D8B41A
:1075BA0005D0015002100310D8A40CD0000E016EA1
:1075CA00000E026E000E036E1200042AD8900332D7
:1075DA0002320132000E0114066E000E0214076E0A
:1075EA00FE0E0314086E065007100810D8B40CD00B
:1075FA00ECD7042A010E0126000E0222000E0322F5
:10760A00D890033202320132000E0114066E000EC7
:10761A000214076EFF0E0314086E065007100810B6
:10762A00D8B406D0E6D70406D89001360236033617
:10763A0002BE03D0020E0460F6D704A0029ED890C0
:10764A000432045003120550D8A4038E01C001F07D
:10765A0002C002F003C003F01200FAEC37F0010E88
:10766A00046E010ECEEC38F0E50E056E7E0E066E47
:10767A008AEC39F019C021F01AC022F022BE3FD09C
:10768A00225003E12104D8A03AD01D0E116E000E3B
:10769A00126E21C013F022C014F0000E166E0A0EEC
:1076AA00156EADEC38F0010E046E020ECEEC38F019
:1076BA009A0E056E7F0E066E8AEC39F0010E046E84
:1076CA00020ECEEC38F01D0E056E000E066E8AEC28
:1076DA0039F0AC0E056E7F0E066E8AEC39F01A0E82
:1076EA001C6E5E0E1B6E6E0EE82EFED71B2EFCD78E
:1076FA001C2EFAD700D02106D8A02206BFD7010E29
:10770A00046E010ECEEC38F02A0E056E7F0E066E60
:10771A008AEC39F0010E046E020ECEEC38F0080E37
:10772A00056E7F0E066E8AEC39F0000E086E030EA7
:10773A00076E1FEC39F012000BC001F00CC002F00A
:10774A00000E046E080E036EFFEC39F001C00BF058
:10775A0002C00CF00DC001F00EC002F0000E046E63
:10776A00080E036EFFEC39F001C00DF002C00EF0F6
:10777A000FC001F010C002F0000E046E080E036E76
:10778A00FFEC39F001C00FF002C010F0FAEC37F04C
:10779A00010E046E010ECEEC38F0D40E056E7F0E8B
:1077AA00066E8AEC39F013C005F014C006F08AECB4
:1077BA0039F0000E176E000E166E26D00B500C1004
:1077CA00D8B408D084800BC001F00CC002F02EECB3
:1077DA0038F084900D500E10D8B408D084820DC0B1
:1077EA0001F00EC002F02EEC38F084920F50101007
:1077FA00D8B408D084840FC001F010C002F02EEC77
:10780A0038F08494164A172A1150165C1750800AC9
:10781A00156E1250800A1558D8B01200CFD715C06D
:10782A0019F01A6A1B6A1434193601E31A801950BE
:10783A00206E2050D8A407D0000E136E000E146ECE
:10784A00000E156E120018C019F01A6A1B6A173456
:10785A00193601E31A801950216E2150D8A407D095
:10786A00000E136E000E146E000E156E1200000E3E
:10787A001D6E000E1E6E000E1F6E2150890F205EB7
:10788A0015C021F01850211A800E2116148EFF0EF1
:10789A001316FF0E1416000E1516178EFF0E161667
:1078AA00FF0E1716000E1816180E1C6ED8901D36ED
:1078BA001E361F361650135C175014581850155898
:1078CA00D8A007D01650135E1750145A1850155ADC
:1078DA001D80D8901336143615361C2EE7D71DC0D6
:1078EA0001F01EC002F01FC003F020C004F021C046
:1078FA0005F0DBEC3AF001C013F002C014F003C04B
:10790A0015F012000BC00FF0106A116A0A340F3614
:10791A0001E310800F50126E1250D8A407D0000E47
:10792A00096E000E0A6E000E0B6E12000EC00FF0EA
:10793A00106A116A0D340F3601E310800F50176E6A
:10794A001750D8A407D0000E096E000E0A6E000E5A
:10795A000B6E120017507B0F12260BC017F00E5039
:10796A00171A800E17160A8E0D8EFF0E0C16FF0EB2
:10797A000D16000E0E16000E136E000E146E000E7B
:10798A00156E070E166E09A006D00C5013260D5060
:10799A0014220E501522D8900B320A320932D8908E
:1079AA000C360D360E36162EEED7090E166E09A0B7
:1079BA0006D00C5013260D5014220E501522D890C2
:1079CA000B320A320932D890153214321332162E7B
:1079DA00EED713C001F014C002F015C003F012C0B4
:1079EA0004F017C005F0DBEC3AF001C009F002C060
:1079FA000AF003C00BF0120003C005F0066A076A1A
:107A0A000234053601E3068005500F6E0F50D8A4E4
:107A1A0009D0000E016E000E026E000E036E000EFB
:107A2A00046E1200170E056E01C006F002C007F0C0
:107A3A0003C008F00528096E04D0D890083207322E
:107A4A000632092EFAD706500A6E028EFF0E01166A
:107A5A00FF0E0216000E031601500B6E02500C6E3A
:107A6A0003500D6E0E6A8E0E0F5E0FAE16D00F50BB
:107A7A00800A8F0FD8B009D0000E016E000E026E78
:107A8A00000E036E000E046E1200D8900E320D32F4
:107A9A000C320B320F3EF9D715D0170E0F640FD0E8
:107AAA00000E016E000E026E000E036E000E046ED2
:107ABA001200D8900B360C360D360E360F060F50C4
:107ACA00D8A4F7D70A50D8B408D00E1E0D1E0C1E23
:107ADA000B6C000E0C220D220E220BC001F00CC002
:107AEA0002F00DC003F00EC004F01200000E386E52
:107AFA00000E376EB8D0000ECF6E000ECE6E839099
:107B0A00080EE82EFED700F08380100EE82EFED76E
:107B1A0000D0839083A2FED7CD8083B2FED7CD90CA
:107B2A00CF50256E246ACE50266E276A245026121C
:107B3A002550271226C030F027C031F0000E31BE82
:107B4A00FF0E326E336E30C009F031C00AF032C017
:107B5A000BF033C00CF0C3EC39F009C013F00AC0C3
:107B6A0014F00BC015F00D0E166E930E176E430E21
:107B7A00186E14EC3CF013C039F014C03AF015C07A
:107B8A003BF039C009F03AC00AF03BC00BF0930E43
:107B9A000C6EC90E0D6E3E0E0E6E87EC3CF009C0DF
:107BAA0034F00AC035F00BC036F02C0E116E000E00
:107BBA00126E34C001F035C002F036C003F001EC99
:107BCA003DF001C013F002C014F0000E166E0A0E4A
:107BDA00156EADEC38F0280E116E000E126E39C01B
:107BEA0001F03AC002F03BC003F001EC3DF001C0E5
:107BFA0013F002C014F0000E166E0A0E156EADECEC
:107C0A0038F0FAEC37F0010E046E010ECEEC38F0C3
:107C1A009E0E056E7F0E066E8AEC39F0280E056EF2
:107C2A00000E066E8AEC39F0010E046E020ECEECDE
:107C3A0038F0900E056E7F0E066E8AEC39F02C0E27
:107C4A00056E000E066E8AEC39F00D0E256EAF0E2B
:107C5A00246EB60EE82EFED7242EFCD7252EFAD790
:107C6A0000D0374A382A2250375C3850800A246EAE
:107C7A002350800A2458D8B012003DD7000E926EC5
:107C8A00FC0E936E010E946E020E956E000E966EA9
:107C9A009D989D9A2E0E406EE00E3F6E000EAC6EC1
:107CAA00949C948EAC98AC9C000EAB6EAB88B89644
:107CBA00000EAC6EAC94200EAF6EAB9CAB8E51EC4A
:107CCA0039F0FAEC37F0010E046E010ECEEC38F002
:107CDA007F0E056E7F0E066E8AEC39F01A0E3D6E27
:107CEA005E0E3C6E6E0EE82EFED73C2EFCD73D2E65
:107CFA00FAD700D059EC38F001EC38F03E6ECAD011
:107D0A00000E1A6E0A0E196E32EC3BF0F3D7000E13
:107D1A001A6E140E196E32EC3BF0ECD7000E1A6E86
:107D2A001E0E196E32EC3BF0E5D7010E0C6E000EFA
:107D3A000B6E000E0E6E000E0D6E000E106E000E13
:107D4A000F6E3FC011F040C012F0FA0E136E7F0E94
:107D5A00146EA1EC3BF0CED7000E0C6E000E0B6E2B
:107D6A00010E0E6E000E0D6E000E106E000E0F6EDE
:107D7A003FC011F040C012F0EA0E136E7F0E146E6F
:107D8A00A1EC3BF0B7D7000E0C6E000E0B6E000E86
:107D9A000E6E000E0D6E010E106E000E0F6E3FC0BD
:107DAA0011F040C012F0F00E136E7F0E146EA1ECAB
:107DBA003BF0A0D7010E0C6E000E0B6E000E0E6E7D
:107DCA00000E0D6E000E106EB40E0F6E3FC011F055
:107DDA0040C012F0DD0E136E7F0E146EA1EC3BF064
:107DEA0089D7000E0C6E000E0B6E010E0E6E000E81
:107DFA000D6E010E106E000E0F6E3FC011F040C0E6
:107E0A0012F0F50E136E7F0E146EA1EC3BF072D7D2
:107E1A00010E0C6E000E0B6E000E0E6E800E0D6EB5
:107E2A00000E106E800E0F6E3FC011F040C012F0AF
:107E3A00E40E136E7F0E146EA1EC3BF05BD7000EBE
:107E4A00236E140E226E7BEC3DF054D741EC3AF0CF
:107E5A0051D7FAEC37F0010E046E010ECEEC38F071
:107E6A00BA0E056E7F0E066E8AEC39F0010E046EAC
:107E7A00020ECEEC38F03E5070EC38F0330E3D6E08
:107E8A00BB0E3C6EE00EE82EFED73C2EFCD73D2EF4
:107E9A00FAD730D73E50310AD8B432D7030AD8B409
:107EAA0036D7010AD8B43AD7510AD8B46CD7060AD9
:107EBA00D8B4C5D7030AD8B44FD70A0AD8B4C6D794
:107ECA001D0AD8B477D7020AD8B42FD7060AD8B46D
:107EDA0088D7030AD8B49CD7BCD700436F756E7491
:107EEA00696E6720446F776E2E2E2E200020202088
:107EFA0020204D6F74696F6E2020202020002020E2
:107F0A002046696E6973686564212020202000205C
:107F1A00202020696E7075742E2E2E2020202000BD
:107F2A00202020436F756E74646F776E20202020A6
:107F3A0000202020205365637572697479202020FF
:107F4A002000202020204465746563746564212024
:107F5A0020200020202020416374697661746564C2
:107F6A002020200020202057616974696E67206FE5
:107F7A006E202020005468652042697264732120B3
:107F8A00323031372000496E636865733A20202009
:107F9A002020200043656E74696D65746572733ABA
:107FAA0020002073656373206C6566742E2E2E0084
:107FBA00554E45585045435445443A200020446F95
:107FCA006E2774204D6F76652E004C6564206973A8
:107FDA003A2000507572706C6500576869746500C4
:107FEA00477265656E00426C7565005465616C0088
:057FFA00526564000067
:020000040020DA
:08000000FFFFFFFFFFFFFFFF00
:020000040030CA
:0E000000000C1F1EFF8301FF0FC00FE00F401A
:00000001FF
